{
	"data": {
		"bytecode": {
			"linkReferences": {},
			"object": "60a06040523480156200001157600080fd5b5060405162001abc38038062001abc8339810160408190526200003491620006ee565b60016000556040516329965a1d60e01b815230600482018190527fb281fc8c12954d22544db45de3159a39272895b169a852b314f9cc762e44c53b60248301526044820152731820a4b7618bde71dce8cdc73aab6c95905fad24906329965a1d90606401600060405180830381600087803b158015620000b357600080fd5b505af1158015620000c8573d6000803e3d6000fd5b5050600180546001600160a01b0319163317905550506001600160a01b038116608052620000f56200012b565b60035562000102620001a0565b6007556200010f620002c9565b6008556200011c62000395565b600955506001600655620007a5565b6080516040516370a0823160e01b81523060048201526000916001600160a01b0316906370a0823190602401602060405180830381865afa15801562000175573d6000803e3d6000fd5b505050506040513d601f19601f820116820180604052508101906200019b919062000720565b905090565b60045460015460009182916001600160a01b0316620001be6200045c565b33620001c962000530565b620001d660014362000750565b60065460025460055492409230916001600160a01b031690620001f862000604565b60408051602081019c909c526001600160601b031960609b8c1b8116918d019190915260548c019990995296891b881660748b015260888a019590955260a889019390935260c8880191909152851b841660e887015290931b90911660fc840152610110830191909152610130820152610150015b60408051808303601f19018152828252805160209182012081840181905282518085038301815293830190925282519201919091209091506000620002b46021836200076c565b620002c19060026200078f565b949350505050565b600080600554620002df6200045c60201b60201c565b6001546001600160a01b031633620002f662000604565b6004546200030660014362000750565b6006546002549140913091906001600160a01b03166200032562000530565b60408051602081019c909c528b01999099526001600160601b0319606098891b8116898c015296881b871660748b015260888a019590955260a889019390935260c8880191909152841b831660e887015260fc86015290911b1661011c830152610130820152610150016200026d565b60008060065460045430620003af6200045c60201b60201c565b6005546002546001546001600160a01b0391821691339116620003d162000530565b620003db62000604565b620003e860014362000750565b60408051602081019c909c528b01999099526001600160601b0319606098891b8116898c015260748b019790975260948a019590955292861b851660b489015290851b841660c888015290931b90911660dc85015260f084019190915261011083015240610130820152610150016200026d565b60055460018054600454600093849390926001600160a01b031691339162000485904362000750565b6006546002546040805160208101989098526001600160601b0319606097881b81169189019190915294861b8516605488015260688701939093529040608886015230841b831660a886015260bc85015290911b1660dc82015260f00160408051601f19818403018152828252805160209182012090830181905292506000910160408051601f19818403018152919052805160209091012090506000620002b4610258836200076c565b60045460018054600092839290916001600160a01b031690339062000556904362000750565b6006546002546005546040805160208101989098526001600160601b0319606097881b81169189019190915294861b8516605488015292406068870152608886019190915230841b831660a886015290921b1660bc83015260d082015260f00160408051601f19818403018152828252805160209182012090830181905292506000910160408051601f19818403018152919052805160209091012090506000620002b461012c836200076c565b60008060065460045430600554600260009054906101000a90046001600160a01b031633600160009054906101000a90046001600160a01b03166001436200064d919062000750565b6040805160208101999099528801969096526001600160601b0319606095861b811686890152607488019490945291841b83166094870152831b821660a886015290911b1660bc8301524060d082015260f00160408051601f19818403018152828252805160209182012090830181905292506000910160408051601f19818403018152919052805160209091012090506000620002b4610384836200076c565b6000602082840312156200070157600080fd5b81516001600160a01b03811681146200071957600080fd5b9392505050565b6000602082840312156200073357600080fd5b5051919050565b634e487b7160e01b600052601160045260246000fd5b818103818111156200076657620007666200073a565b92915050565b6000826200078a57634e487b7160e01b600052601260045260246000fd5b500690565b808201808211156200076657620007666200073a565b6080516112e6620007d6600039600081816101a901528181610203015281816103dd01526108d201526112e66000f3fe608060405234801561001057600080fd5b50600436106100ff5760003560e01c80638da5cb5b11610097578063cbcb317111610066578063cbcb3171146101cb578063d9c291cf146101d4578063dae2ca50146101e7578063f67d3515146101f057600080fd5b80638da5cb5b1461016957806398649f20146101945780639e1a4d191461019c578063c1c1431c146101a457600080fd5b80634c73f2ee116100d35780634c73f2ee1461014657806362e0accb1461014f57806366d16cc314610158578063834be7f91461016157600080fd5b806223de2914610104578063061cd6e514610119578063166cfd0b146101355780633aad20b61461013e575b600080fd5b6101176101123660046110a6565b6101f8565b005b61012260075481565b6040519081526020015b60405180910390f35b61012260045481565b600854610122565b61012260095481565b61012260065481565b61012260055481565b600954610122565b60015461017c906001600160a01b031681565b6040516001600160a01b03909116815260200161012c565b600454610122565b6101226103c5565b61017c7f000000000000000000000000000000000000000000000000000000000000000081565b61012260035481565b60025461017c906001600160a01b031681565b61012260085481565b600754610122565b336001600160a01b037f000000000000000000000000000000000000000000000000000000000000000016146102755760405162461bcd60e51b815260206004820152601e60248201527f4f6e6c792076616c696420746f6b656e7320617265206163636570746564000060448201526064015b60405180910390fd5b6001600160a01b0386166102cb5760405162461bcd60e51b815260206004820152601d60248201527f746f2063616e6e6f7420626520746865206e756c6c2061646472657373000000604482015260640161026c565b6001600160a01b03881661032d5760405162461bcd60e51b815260206004820152602360248201527f4f70657261746f722063616e6e6f7420626520746865206e756c6c206164647260448201526265737360e81b606482015260840161026c565b6001546001600160a01b03908116908816036103a15760405162461bcd60e51b815260206004820152602d60248201527f546f6b656e206f776e65722063616e27742074616b65207061727420696e207260448201526c32b234b9ba3934b13aba34b7b760991b606482015260840161026c565b846802b5e3af16b1880000036103bb576103bb8786610455565b5050505050505050565b6040516370a0823160e01b81523060048201526000907f00000000000000000000000000000000000000000000000000000000000000006001600160a01b0316906370a0823190602401602060405180830381865afa15801561042c573d6000803e3d6000fd5b505050506040513d601f19601f820116820180604052508101906104509190611151565b905090565b604080513381526020810183905230917f8cabf31d2b1b11ba52dbb302817a3c9c83e4b2a5194d35121ab1354d69f6a4cb910160405180910390a280600360008282546104a29190611180565b9091555050600480549060006104b783611193565b91905055507f0fc311e5ad54c0a8111ea3d9aaa3dc57fed9f4dcda8c7ff43391116ab97dcd7f6104e86004546105e3565b6040516104f591906111ac565b60405180910390a16000806105086106ec565b60055415610572575060055461051d84610894565b600680546001935090600061053183611193565b91905055507fef7bc9030fb5e6d9426a1985fc59f4c0e6bb1cc8f84d1a72d0439ca22a51666e60065460405161056991815260200190565b60405180910390a15b600754600854600954600454604080519485526020850193909352918301526060820152821515608082015260a081018290526001600160a01b038516907f4196e6cccb11210e7fc90747d1b7aadab118234c277a69a226559959897655989060c00160405180910390a250505050565b60608160000361060a5750506040805180820190915260018152600360fc1b602082015290565b8160005b8115610634578061061e81611193565b915061062d9050600a83611210565b915061060e565b60008167ffffffffffffffff81111561064f5761064f611224565b6040519080825280601f01601f191660200182016040528015610679576020820181803683370190505b5090505b84156106e45761068e60018361123a565b915061069b600a8661124d565b6106a6906030611180565b60f81b8183815181106106bb576106bb611261565b60200101906001600160f81b031916908160001a9053506106dd600a86611210565b945061067d565b949350505050565b6106f46109b4565b60078190556040519081527fea8314a4d41fa8e3e60459e8255942ae1480e3b65cdf21e031ecfc7faa4650e19060200160405180910390a1610734610ac9565b60088190556040519081527fbf41a021f69623639a03015d65a13c7460632755ff3ed46a9b89a8fcae4749879060200160405180910390a1610774610b86565b60098190556040519081527fdc4ba54f8c7287c69e7679528d5a5c4f3393162810905f6d6d932e55c0c676089060200160405180910390a160006009546008546007546107c19190611180565b6107cb9190611180565b9050806058036107f4576107ec6107e5600354601e610c3e565b6064610c7f565b600555610856565b60148110801561080e575061080a60028261124d565b6001145b15610823576107ec6107e56003546014610c3e565b60508111801561083b575061083960028261124d565b155b15610850576107ec6107e5600354600a610c3e565b60006005555b7f0627271a6aadb3bb88a5c1a16c9273689f198298d5ac6228a9ac47b981fe43b260055460405161088991815260200190565b60405180910390a150565b600280546001600160a01b0319166001600160a01b0383811691821790925560055460405163a9059cbb60e01b8152600481019290925260248201527f00000000000000000000000000000000000000000000000000000000000000009091169063a9059cbb906044016020604051808303816000875af115801561091d573d6000803e3d6000fd5b505050506040513d601f19601f820116820180604052508101906109419190611277565b50600254600554604080513081526001600160a01b0390931660208401528201527faabfc2786b0abdb7b786c958733379e2aa144c1b780c8a3fb48bf05168aa9e819060600160405180910390a1600554600360008282546109a3919061123a565b909155506109b19050610ca2565b50565b60045460015460009182916001600160a01b03166109d0610cf9565b336109d9610dc9565b6109e460014361123a565b60065460025460055492409230916001600160a01b031690610a04610e99565b60408051602081019c909c526001600160601b031960609b8c1b8116918d019190915260548c019990995296891b881660748b015260888a019590955260a889019390935260c8880191909152851b841660e887015290931b90911660fc840152610110830191909152610130820152610150015b60408051808303601f19018152828252805160209182012081840181905282518085038301815293830190925282519201919091209091506000610abe60218361124d565b6106e4906002611180565b600080600554610ad7610cf9565b6001546001600160a01b031633610aec610e99565b600454610afa60014361123a565b6006546002549140913091906001600160a01b0316610b17610dc9565b60408051602081019c909c528b01999099526001600160601b0319606098891b8116898c015296881b871660748b015260888a019590955260a889019390935260c8880191909152841b831660e887015260fc86015290911b1661011c83015261013082015261015001610a79565b60008060065460045430610b98610cf9565b6005546002546001546001600160a01b0391821691339116610bb8610dc9565b610bc0610e99565b610bcb60014361123a565b60408051602081019c909c528b01999099526001600160601b0319606098891b8116898c015260748b019790975260948a019590955292861b851660b489015290851b841660c888015290931b90911660dc85015260f08401919091526101108301524061013082015261015001610a79565b6000670de0b6b3a7640000610c6e610c568585610f7f565b610c696002670de0b6b3a7640000611210565b610fec565b610c789190611210565b9392505050565b600081610c6e610c9785670de0b6b3a7640000610f7f565b610c69600286611210565b600060048190556006805491610cb783611193565b91905055507fef7bc9030fb5e6d9426a1985fc59f4c0e6bb1cc8f84d1a72d0439ca22a51666e600654604051610cef91815260200190565b60405180910390a1565b60055460018054600454600093849390926001600160a01b0316913391610d20904361123a565b6006546002546040805160208101989098526001600160601b0319606097881b81169189019190915294861b8516605488015260688701939093529040608886015230841b831660a886015260bc85015290911b1660dc82015260f00160408051601f19818403018152828252805160209182012090830181905292506000910160408051601f19818403018152919052805160209091012090506000610abe6102588361124d565b60045460018054600092839290916001600160a01b0316903390610ded904361123a565b6006546002546005546040805160208101989098526001600160601b0319606097881b81169189019190915294861b8516605488015292406068870152608886019190915230841b831660a886015290921b1660bc83015260d082015260f00160408051601f19818403018152828252805160209182012090830181905292506000910160408051601f19818403018152919052805160209091012090506000610abe61012c8361124d565b60008060065460045430600554600260009054906101000a90046001600160a01b031633600160009054906101000a90046001600160a01b0316600143610ee0919061123a565b6040805160208101999099528801969096526001600160601b0319606095861b811686890152607488019490945291841b83166094870152831b821660a886015290911b1660bc8301524060d082015260f00160408051601f19818403018152828252805160209182012090830181905292506000910160408051601f19818403018152919052805160209091012090506000610abe6103848361124d565b6000811580610fa357508282610f958183611299565b9250610fa19083611210565b145b610fe65760405162461bcd60e51b815260206004820152601460248201527364732d6d6174682d6d756c2d6f766572666c6f7760601b604482015260640161026c565b92915050565b600082610ff98382611180565b9150811015610fe65760405162461bcd60e51b815260206004820152601460248201527364732d6d6174682d6164642d6f766572666c6f7760601b604482015260640161026c565b80356001600160a01b038116811461105857600080fd5b919050565b60008083601f84011261106f57600080fd5b50813567ffffffffffffffff81111561108757600080fd5b60208301915083602082850101111561109f57600080fd5b9250929050565b60008060008060008060008060c0898b0312156110c257600080fd5b6110cb89611041565b97506110d960208a01611041565b96506110e760408a01611041565b955060608901359450608089013567ffffffffffffffff8082111561110b57600080fd5b6111178c838d0161105d565b909650945060a08b013591508082111561113057600080fd5b5061113d8b828c0161105d565b999c989b5096995094979396929594505050565b60006020828403121561116357600080fd5b5051919050565b634e487b7160e01b600052601160045260246000fd5b80820180821115610fe657610fe661116a565b6000600182016111a5576111a561116a565b5060010190565b600060208083528351808285015260005b818110156111d9578581018301518582016040015282016111bd565b506000604082860101526040601f19601f8301168501019250505092915050565b634e487b7160e01b600052601260045260246000fd5b60008261121f5761121f6111fa565b500490565b634e487b7160e01b600052604160045260246000fd5b81810381811115610fe657610fe661116a565b60008261125c5761125c6111fa565b500690565b634e487b7160e01b600052603260045260246000fd5b60006020828403121561128957600080fd5b81518015158114610c7857600080fd5b8082028115828204841417610fe657610fe661116a56fea264697066735822122094ffc3ccead3a8254a8fa039daaf366dcc3954309d1cd07c213f6f26dffc983b64736f6c63430008130033",
			"opcodes": "PUSH1 0xA0 PUSH1 0x40 MSTORE CALLVALUE DUP1 ISZERO PUSH3 0x11 JUMPI PUSH1 0x0 DUP1 REVERT JUMPDEST POP PUSH1 0x40 MLOAD PUSH3 0x1ABC CODESIZE SUB DUP1 PUSH3 0x1ABC DUP4 CODECOPY DUP2 ADD PUSH1 0x40 DUP2 SWAP1 MSTORE PUSH3 0x34 SWAP2 PUSH3 0x6EE JUMP JUMPDEST PUSH1 0x1 PUSH1 0x0 SSTORE PUSH1 0x40 MLOAD PUSH4 0x29965A1D PUSH1 0xE0 SHL DUP2 MSTORE ADDRESS PUSH1 0x4 DUP3 ADD DUP2 SWAP1 MSTORE PUSH32 0xB281FC8C12954D22544DB45DE3159A39272895B169A852B314F9CC762E44C53B PUSH1 0x24 DUP4 ADD MSTORE PUSH1 0x44 DUP3 ADD MSTORE PUSH20 0x1820A4B7618BDE71DCE8CDC73AAB6C95905FAD24 SWAP1 PUSH4 0x29965A1D SWAP1 PUSH1 0x64 ADD PUSH1 0x0 PUSH1 0x40 MLOAD DUP1 DUP4 SUB DUP2 PUSH1 0x0 DUP8 DUP1 EXTCODESIZE ISZERO DUP1 ISZERO PUSH3 0xB3 JUMPI PUSH1 0x0 DUP1 REVERT JUMPDEST POP GAS CALL ISZERO DUP1 ISZERO PUSH3 0xC8 JUMPI RETURNDATASIZE PUSH1 0x0 DUP1 RETURNDATACOPY RETURNDATASIZE PUSH1 0x0 REVERT JUMPDEST POP POP PUSH1 0x1 DUP1 SLOAD PUSH1 0x1 PUSH1 0x1 PUSH1 0xA0 SHL SUB NOT AND CALLER OR SWAP1 SSTORE POP POP PUSH1 0x1 PUSH1 0x1 PUSH1 0xA0 SHL SUB DUP2 AND PUSH1 0x80 MSTORE PUSH3 0xF5 PUSH3 0x12B JUMP JUMPDEST PUSH1 0x3 SSTORE PUSH3 0x102 PUSH3 0x1A0 JUMP JUMPDEST PUSH1 0x7 SSTORE PUSH3 0x10F PUSH3 0x2C9 JUMP JUMPDEST PUSH1 0x8 SSTORE PUSH3 0x11C PUSH3 0x395 JUMP JUMPDEST PUSH1 0x9 SSTORE POP PUSH1 0x1 PUSH1 0x6 SSTORE PUSH3 0x7A5 JUMP JUMPDEST PUSH1 0x80 MLOAD PUSH1 0x40 MLOAD PUSH4 0x70A08231 PUSH1 0xE0 SHL DUP2 MSTORE ADDRESS PUSH1 0x4 DUP3 ADD MSTORE PUSH1 0x0 SWAP2 PUSH1 0x1 PUSH1 0x1 PUSH1 0xA0 SHL SUB AND SWAP1 PUSH4 0x70A08231 SWAP1 PUSH1 0x24 ADD PUSH1 0x20 PUSH1 0x40 MLOAD DUP1 DUP4 SUB DUP2 DUP7 GAS STATICCALL ISZERO DUP1 ISZERO PUSH3 0x175 JUMPI RETURNDATASIZE PUSH1 0x0 DUP1 RETURNDATACOPY RETURNDATASIZE PUSH1 0x0 REVERT JUMPDEST POP POP POP POP PUSH1 0x40 MLOAD RETURNDATASIZE PUSH1 0x1F NOT PUSH1 0x1F DUP3 ADD AND DUP3 ADD DUP1 PUSH1 0x40 MSTORE POP DUP2 ADD SWAP1 PUSH3 0x19B SWAP2 SWAP1 PUSH3 0x720 JUMP JUMPDEST SWAP1 POP SWAP1 JUMP JUMPDEST PUSH1 0x4 SLOAD PUSH1 0x1 SLOAD PUSH1 0x0 SWAP2 DUP3 SWAP2 PUSH1 0x1 PUSH1 0x1 PUSH1 0xA0 SHL SUB AND PUSH3 0x1BE PUSH3 0x45C JUMP JUMPDEST CALLER PUSH3 0x1C9 PUSH3 0x530 JUMP JUMPDEST PUSH3 0x1D6 PUSH1 0x1 NUMBER PUSH3 0x750 JUMP JUMPDEST PUSH1 0x6 SLOAD PUSH1 0x2 SLOAD PUSH1 0x5 SLOAD SWAP3 BLOCKHASH SWAP3 ADDRESS SWAP2 PUSH1 0x1 PUSH1 0x1 PUSH1 0xA0 SHL SUB AND SWAP1 PUSH3 0x1F8 PUSH3 0x604 JUMP JUMPDEST PUSH1 0x40 DUP1 MLOAD PUSH1 0x20 DUP2 ADD SWAP13 SWAP1 SWAP13 MSTORE PUSH1 0x1 PUSH1 0x1 PUSH1 0x60 SHL SUB NOT PUSH1 0x60 SWAP12 DUP13 SHL DUP2 AND SWAP2 DUP14 ADD SWAP2 SWAP1 SWAP2 MSTORE PUSH1 0x54 DUP13 ADD SWAP10 SWAP1 SWAP10 MSTORE SWAP7 DUP10 SHL DUP9 AND PUSH1 0x74 DUP12 ADD MSTORE PUSH1 0x88 DUP11 ADD SWAP6 SWAP1 SWAP6 MSTORE PUSH1 0xA8 DUP10 ADD SWAP4 SWAP1 SWAP4 MSTORE PUSH1 0xC8 DUP9 ADD SWAP2 SWAP1 SWAP2 MSTORE DUP6 SHL DUP5 AND PUSH1 0xE8 DUP8 ADD MSTORE SWAP1 SWAP4 SHL SWAP1 SWAP2 AND PUSH1 0xFC DUP5 ADD MSTORE PUSH2 0x110 DUP4 ADD SWAP2 SWAP1 SWAP2 MSTORE PUSH2 0x130 DUP3 ADD MSTORE PUSH2 0x150 ADD JUMPDEST PUSH1 0x40 DUP1 MLOAD DUP1 DUP4 SUB PUSH1 0x1F NOT ADD DUP2 MSTORE DUP3 DUP3 MSTORE DUP1 MLOAD PUSH1 0x20 SWAP2 DUP3 ADD KECCAK256 DUP2 DUP5 ADD DUP2 SWAP1 MSTORE DUP3 MLOAD DUP1 DUP6 SUB DUP4 ADD DUP2 MSTORE SWAP4 DUP4 ADD SWAP1 SWAP3 MSTORE DUP3 MLOAD SWAP3 ADD SWAP2 SWAP1 SWAP2 KECCAK256 SWAP1 SWAP2 POP PUSH1 0x0 PUSH3 0x2B4 PUSH1 0x21 DUP4 PUSH3 0x76C JUMP JUMPDEST PUSH3 0x2C1 SWAP1 PUSH1 0x2 PUSH3 0x78F JUMP JUMPDEST SWAP5 SWAP4 POP POP POP POP JUMP JUMPDEST PUSH1 0x0 DUP1 PUSH1 0x5 SLOAD PUSH3 0x2DF PUSH3 0x45C PUSH1 0x20 SHL PUSH1 0x20 SHR JUMP JUMPDEST PUSH1 0x1 SLOAD PUSH1 0x1 PUSH1 0x1 PUSH1 0xA0 SHL SUB AND CALLER PUSH3 0x2F6 PUSH3 0x604 JUMP JUMPDEST PUSH1 0x4 SLOAD PUSH3 0x306 PUSH1 0x1 NUMBER PUSH3 0x750 JUMP JUMPDEST PUSH1 0x6 SLOAD PUSH1 0x2 SLOAD SWAP2 BLOCKHASH SWAP2 ADDRESS SWAP2 SWAP1 PUSH1 0x1 PUSH1 0x1 PUSH1 0xA0 SHL SUB AND PUSH3 0x325 PUSH3 0x530 JUMP JUMPDEST PUSH1 0x40 DUP1 MLOAD PUSH1 0x20 DUP2 ADD SWAP13 SWAP1 SWAP13 MSTORE DUP12 ADD SWAP10 SWAP1 SWAP10 MSTORE PUSH1 0x1 PUSH1 0x1 PUSH1 0x60 SHL SUB NOT PUSH1 0x60 SWAP9 DUP10 SHL DUP2 AND DUP10 DUP13 ADD MSTORE SWAP7 DUP9 SHL DUP8 AND PUSH1 0x74 DUP12 ADD MSTORE PUSH1 0x88 DUP11 ADD SWAP6 SWAP1 SWAP6 MSTORE PUSH1 0xA8 DUP10 ADD SWAP4 SWAP1 SWAP4 MSTORE PUSH1 0xC8 DUP9 ADD SWAP2 SWAP1 SWAP2 MSTORE DUP5 SHL DUP4 AND PUSH1 0xE8 DUP8 ADD MSTORE PUSH1 0xFC DUP7 ADD MSTORE SWAP1 SWAP2 SHL AND PUSH2 0x11C DUP4 ADD MSTORE PUSH2 0x130 DUP3 ADD MSTORE PUSH2 0x150 ADD PUSH3 0x26D JUMP JUMPDEST PUSH1 0x0 DUP1 PUSH1 0x6 SLOAD PUSH1 0x4 SLOAD ADDRESS PUSH3 0x3AF PUSH3 0x45C PUSH1 0x20 SHL PUSH1 0x20 SHR JUMP JUMPDEST PUSH1 0x5 SLOAD PUSH1 0x2 SLOAD PUSH1 0x1 SLOAD PUSH1 0x1 PUSH1 0x1 PUSH1 0xA0 SHL SUB SWAP2 DUP3 AND SWAP2 CALLER SWAP2 AND PUSH3 0x3D1 PUSH3 0x530 JUMP JUMPDEST PUSH3 0x3DB PUSH3 0x604 JUMP JUMPDEST PUSH3 0x3E8 PUSH1 0x1 NUMBER PUSH3 0x750 JUMP JUMPDEST PUSH1 0x40 DUP1 MLOAD PUSH1 0x20 DUP2 ADD SWAP13 SWAP1 SWAP13 MSTORE DUP12 ADD SWAP10 SWAP1 SWAP10 MSTORE PUSH1 0x1 PUSH1 0x1 PUSH1 0x60 SHL SUB NOT PUSH1 0x60 SWAP9 DUP10 SHL DUP2 AND DUP10 DUP13 ADD MSTORE PUSH1 0x74 DUP12 ADD SWAP8 SWAP1 SWAP8 MSTORE PUSH1 0x94 DUP11 ADD SWAP6 SWAP1 SWAP6 MSTORE SWAP3 DUP7 SHL DUP6 AND PUSH1 0xB4 DUP10 ADD MSTORE SWAP1 DUP6 SHL DUP5 AND PUSH1 0xC8 DUP9 ADD MSTORE SWAP1 SWAP4 SHL SWAP1 SWAP2 AND PUSH1 0xDC DUP6 ADD MSTORE PUSH1 0xF0 DUP5 ADD SWAP2 SWAP1 SWAP2 MSTORE PUSH2 0x110 DUP4 ADD MSTORE BLOCKHASH PUSH2 0x130 DUP3 ADD MSTORE PUSH2 0x150 ADD PUSH3 0x26D JUMP JUMPDEST PUSH1 0x5 SLOAD PUSH1 0x1 DUP1 SLOAD PUSH1 0x4 SLOAD PUSH1 0x0 SWAP4 DUP5 SWAP4 SWAP1 SWAP3 PUSH1 0x1 PUSH1 0x1 PUSH1 0xA0 SHL SUB AND SWAP2 CALLER SWAP2 PUSH3 0x485 SWAP1 NUMBER PUSH3 0x750 JUMP JUMPDEST PUSH1 0x6 SLOAD PUSH1 0x2 SLOAD PUSH1 0x40 DUP1 MLOAD PUSH1 0x20 DUP2 ADD SWAP9 SWAP1 SWAP9 MSTORE PUSH1 0x1 PUSH1 0x1 PUSH1 0x60 SHL SUB NOT PUSH1 0x60 SWAP8 DUP9 SHL DUP2 AND SWAP2 DUP10 ADD SWAP2 SWAP1 SWAP2 MSTORE SWAP5 DUP7 SHL DUP6 AND PUSH1 0x54 DUP9 ADD MSTORE PUSH1 0x68 DUP8 ADD SWAP4 SWAP1 SWAP4 MSTORE SWAP1 BLOCKHASH PUSH1 0x88 DUP7 ADD MSTORE ADDRESS DUP5 SHL DUP4 AND PUSH1 0xA8 DUP7 ADD MSTORE PUSH1 0xBC DUP6 ADD MSTORE SWAP1 SWAP2 SHL AND PUSH1 0xDC DUP3 ADD MSTORE PUSH1 0xF0 ADD PUSH1 0x40 DUP1 MLOAD PUSH1 0x1F NOT DUP2 DUP5 SUB ADD DUP2 MSTORE DUP3 DUP3 MSTORE DUP1 MLOAD PUSH1 0x20 SWAP2 DUP3 ADD KECCAK256 SWAP1 DUP4 ADD DUP2 SWAP1 MSTORE SWAP3 POP PUSH1 0x0 SWAP2 ADD PUSH1 0x40 DUP1 MLOAD PUSH1 0x1F NOT DUP2 DUP5 SUB ADD DUP2 MSTORE SWAP2 SWAP1 MSTORE DUP1 MLOAD PUSH1 0x20 SWAP1 SWAP2 ADD KECCAK256 SWAP1 POP PUSH1 0x0 PUSH3 0x2B4 PUSH2 0x258 DUP4 PUSH3 0x76C JUMP JUMPDEST PUSH1 0x4 SLOAD PUSH1 0x1 DUP1 SLOAD PUSH1 0x0 SWAP3 DUP4 SWAP3 SWAP1 SWAP2 PUSH1 0x1 PUSH1 0x1 PUSH1 0xA0 SHL SUB AND SWAP1 CALLER SWAP1 PUSH3 0x556 SWAP1 NUMBER PUSH3 0x750 JUMP JUMPDEST PUSH1 0x6 SLOAD PUSH1 0x2 SLOAD PUSH1 0x5 SLOAD PUSH1 0x40 DUP1 MLOAD PUSH1 0x20 DUP2 ADD SWAP9 SWAP1 SWAP9 MSTORE PUSH1 0x1 PUSH1 0x1 PUSH1 0x60 SHL SUB NOT PUSH1 0x60 SWAP8 DUP9 SHL DUP2 AND SWAP2 DUP10 ADD SWAP2 SWAP1 SWAP2 MSTORE SWAP5 DUP7 SHL DUP6 AND PUSH1 0x54 DUP9 ADD MSTORE SWAP3 BLOCKHASH PUSH1 0x68 DUP8 ADD MSTORE PUSH1 0x88 DUP7 ADD SWAP2 SWAP1 SWAP2 MSTORE ADDRESS DUP5 SHL DUP4 AND PUSH1 0xA8 DUP7 ADD MSTORE SWAP1 SWAP3 SHL AND PUSH1 0xBC DUP4 ADD MSTORE PUSH1 0xD0 DUP3 ADD MSTORE PUSH1 0xF0 ADD PUSH1 0x40 DUP1 MLOAD PUSH1 0x1F NOT DUP2 DUP5 SUB ADD DUP2 MSTORE DUP3 DUP3 MSTORE DUP1 MLOAD PUSH1 0x20 SWAP2 DUP3 ADD KECCAK256 SWAP1 DUP4 ADD DUP2 SWAP1 MSTORE SWAP3 POP PUSH1 0x0 SWAP2 ADD PUSH1 0x40 DUP1 MLOAD PUSH1 0x1F NOT DUP2 DUP5 SUB ADD DUP2 MSTORE SWAP2 SWAP1 MSTORE DUP1 MLOAD PUSH1 0x20 SWAP1 SWAP2 ADD KECCAK256 SWAP1 POP PUSH1 0x0 PUSH3 0x2B4 PUSH2 0x12C DUP4 PUSH3 0x76C JUMP JUMPDEST PUSH1 0x0 DUP1 PUSH1 0x6 SLOAD PUSH1 0x4 SLOAD ADDRESS PUSH1 0x5 SLOAD PUSH1 0x2 PUSH1 0x0 SWAP1 SLOAD SWAP1 PUSH2 0x100 EXP SWAP1 DIV PUSH1 0x1 PUSH1 0x1 PUSH1 0xA0 SHL SUB AND CALLER PUSH1 0x1 PUSH1 0x0 SWAP1 SLOAD SWAP1 PUSH2 0x100 EXP SWAP1 DIV PUSH1 0x1 PUSH1 0x1 PUSH1 0xA0 SHL SUB AND PUSH1 0x1 NUMBER PUSH3 0x64D SWAP2 SWAP1 PUSH3 0x750 JUMP JUMPDEST PUSH1 0x40 DUP1 MLOAD PUSH1 0x20 DUP2 ADD SWAP10 SWAP1 SWAP10 MSTORE DUP9 ADD SWAP7 SWAP1 SWAP7 MSTORE PUSH1 0x1 PUSH1 0x1 PUSH1 0x60 SHL SUB NOT PUSH1 0x60 SWAP6 DUP7 SHL DUP2 AND DUP7 DUP10 ADD MSTORE PUSH1 0x74 DUP9 ADD SWAP5 SWAP1 SWAP5 MSTORE SWAP2 DUP5 SHL DUP4 AND PUSH1 0x94 DUP8 ADD MSTORE DUP4 SHL DUP3 AND PUSH1 0xA8 DUP7 ADD MSTORE SWAP1 SWAP2 SHL AND PUSH1 0xBC DUP4 ADD MSTORE BLOCKHASH PUSH1 0xD0 DUP3 ADD MSTORE PUSH1 0xF0 ADD PUSH1 0x40 DUP1 MLOAD PUSH1 0x1F NOT DUP2 DUP5 SUB ADD DUP2 MSTORE DUP3 DUP3 MSTORE DUP1 MLOAD PUSH1 0x20 SWAP2 DUP3 ADD KECCAK256 SWAP1 DUP4 ADD DUP2 SWAP1 MSTORE SWAP3 POP PUSH1 0x0 SWAP2 ADD PUSH1 0x40 DUP1 MLOAD PUSH1 0x1F NOT DUP2 DUP5 SUB ADD DUP2 MSTORE SWAP2 SWAP1 MSTORE DUP1 MLOAD PUSH1 0x20 SWAP1 SWAP2 ADD KECCAK256 SWAP1 POP PUSH1 0x0 PUSH3 0x2B4 PUSH2 0x384 DUP4 PUSH3 0x76C JUMP JUMPDEST PUSH1 0x0 PUSH1 0x20 DUP3 DUP5 SUB SLT ISZERO PUSH3 0x701 JUMPI PUSH1 0x0 DUP1 REVERT JUMPDEST DUP2 MLOAD PUSH1 0x1 PUSH1 0x1 PUSH1 0xA0 SHL SUB DUP2 AND DUP2 EQ PUSH3 0x719 JUMPI PUSH1 0x0 DUP1 REVERT JUMPDEST SWAP4 SWAP3 POP POP POP JUMP JUMPDEST PUSH1 0x0 PUSH1 0x20 DUP3 DUP5 SUB SLT ISZERO PUSH3 0x733 JUMPI PUSH1 0x0 DUP1 REVERT JUMPDEST POP MLOAD SWAP2 SWAP1 POP JUMP JUMPDEST PUSH4 0x4E487B71 PUSH1 0xE0 SHL PUSH1 0x0 MSTORE PUSH1 0x11 PUSH1 0x4 MSTORE PUSH1 0x24 PUSH1 0x0 REVERT JUMPDEST DUP2 DUP2 SUB DUP2 DUP2 GT ISZERO PUSH3 0x766 JUMPI PUSH3 0x766 PUSH3 0x73A JUMP JUMPDEST SWAP3 SWAP2 POP POP JUMP JUMPDEST PUSH1 0x0 DUP3 PUSH3 0x78A JUMPI PUSH4 0x4E487B71 PUSH1 0xE0 SHL PUSH1 0x0 MSTORE PUSH1 0x12 PUSH1 0x4 MSTORE PUSH1 0x24 PUSH1 0x0 REVERT JUMPDEST POP MOD SWAP1 JUMP JUMPDEST DUP1 DUP3 ADD DUP1 DUP3 GT ISZERO PUSH3 0x766 JUMPI PUSH3 0x766 PUSH3 0x73A JUMP JUMPDEST PUSH1 0x80 MLOAD PUSH2 0x12E6 PUSH3 0x7D6 PUSH1 0x0 CODECOPY PUSH1 0x0 DUP2 DUP2 PUSH2 0x1A9 ADD MSTORE DUP2 DUP2 PUSH2 0x203 ADD MSTORE DUP2 DUP2 PUSH2 0x3DD ADD MSTORE PUSH2 0x8D2 ADD MSTORE PUSH2 0x12E6 PUSH1 0x0 RETURN INVALID PUSH1 0x80 PUSH1 0x40 MSTORE CALLVALUE DUP1 ISZERO PUSH2 0x10 JUMPI PUSH1 0x0 DUP1 REVERT JUMPDEST POP PUSH1 0x4 CALLDATASIZE LT PUSH2 0xFF JUMPI PUSH1 0x0 CALLDATALOAD PUSH1 0xE0 SHR DUP1 PUSH4 0x8DA5CB5B GT PUSH2 0x97 JUMPI DUP1 PUSH4 0xCBCB3171 GT PUSH2 0x66 JUMPI DUP1 PUSH4 0xCBCB3171 EQ PUSH2 0x1CB JUMPI DUP1 PUSH4 0xD9C291CF EQ PUSH2 0x1D4 JUMPI DUP1 PUSH4 0xDAE2CA50 EQ PUSH2 0x1E7 JUMPI DUP1 PUSH4 0xF67D3515 EQ PUSH2 0x1F0 JUMPI PUSH1 0x0 DUP1 REVERT JUMPDEST DUP1 PUSH4 0x8DA5CB5B EQ PUSH2 0x169 JUMPI DUP1 PUSH4 0x98649F20 EQ PUSH2 0x194 JUMPI DUP1 PUSH4 0x9E1A4D19 EQ PUSH2 0x19C JUMPI DUP1 PUSH4 0xC1C1431C EQ PUSH2 0x1A4 JUMPI PUSH1 0x0 DUP1 REVERT JUMPDEST DUP1 PUSH4 0x4C73F2EE GT PUSH2 0xD3 JUMPI DUP1 PUSH4 0x4C73F2EE EQ PUSH2 0x146 JUMPI DUP1 PUSH4 0x62E0ACCB EQ PUSH2 0x14F JUMPI DUP1 PUSH4 0x66D16CC3 EQ PUSH2 0x158 JUMPI DUP1 PUSH4 0x834BE7F9 EQ PUSH2 0x161 JUMPI PUSH1 0x0 DUP1 REVERT JUMPDEST DUP1 PUSH3 0x23DE29 EQ PUSH2 0x104 JUMPI DUP1 PUSH4 0x61CD6E5 EQ PUSH2 0x119 JUMPI DUP1 PUSH4 0x166CFD0B EQ PUSH2 0x135 JUMPI DUP1 PUSH4 0x3AAD20B6 EQ PUSH2 0x13E JUMPI JUMPDEST PUSH1 0x0 DUP1 REVERT JUMPDEST PUSH2 0x117 PUSH2 0x112 CALLDATASIZE PUSH1 0x4 PUSH2 0x10A6 JUMP JUMPDEST PUSH2 0x1F8 JUMP JUMPDEST STOP JUMPDEST PUSH2 0x122 PUSH1 0x7 SLOAD DUP2 JUMP JUMPDEST PUSH1 0x40 MLOAD SWAP1 DUP2 MSTORE PUSH1 0x20 ADD JUMPDEST PUSH1 0x40 MLOAD DUP1 SWAP2 SUB SWAP1 RETURN JUMPDEST PUSH2 0x122 PUSH1 0x4 SLOAD DUP2 JUMP JUMPDEST PUSH1 0x8 SLOAD PUSH2 0x122 JUMP JUMPDEST PUSH2 0x122 PUSH1 0x9 SLOAD DUP2 JUMP JUMPDEST PUSH2 0x122 PUSH1 0x6 SLOAD DUP2 JUMP JUMPDEST PUSH2 0x122 PUSH1 0x5 SLOAD DUP2 JUMP JUMPDEST PUSH1 0x9 SLOAD PUSH2 0x122 JUMP JUMPDEST PUSH1 0x1 SLOAD PUSH2 0x17C SWAP1 PUSH1 0x1 PUSH1 0x1 PUSH1 0xA0 SHL SUB AND DUP2 JUMP JUMPDEST PUSH1 0x40 MLOAD PUSH1 0x1 PUSH1 0x1 PUSH1 0xA0 SHL SUB SWAP1 SWAP2 AND DUP2 MSTORE PUSH1 0x20 ADD PUSH2 0x12C JUMP JUMPDEST PUSH1 0x4 SLOAD PUSH2 0x122 JUMP JUMPDEST PUSH2 0x122 PUSH2 0x3C5 JUMP JUMPDEST PUSH2 0x17C PUSH32 0x0 DUP2 JUMP JUMPDEST PUSH2 0x122 PUSH1 0x3 SLOAD DUP2 JUMP JUMPDEST PUSH1 0x2 SLOAD PUSH2 0x17C SWAP1 PUSH1 0x1 PUSH1 0x1 PUSH1 0xA0 SHL SUB AND DUP2 JUMP JUMPDEST PUSH2 0x122 PUSH1 0x8 SLOAD DUP2 JUMP JUMPDEST PUSH1 0x7 SLOAD PUSH2 0x122 JUMP JUMPDEST CALLER PUSH1 0x1 PUSH1 0x1 PUSH1 0xA0 SHL SUB PUSH32 0x0 AND EQ PUSH2 0x275 JUMPI PUSH1 0x40 MLOAD PUSH3 0x461BCD PUSH1 0xE5 SHL DUP2 MSTORE PUSH1 0x20 PUSH1 0x4 DUP3 ADD MSTORE PUSH1 0x1E PUSH1 0x24 DUP3 ADD MSTORE PUSH32 0x4F6E6C792076616C696420746F6B656E73206172652061636365707465640000 PUSH1 0x44 DUP3 ADD MSTORE PUSH1 0x64 ADD JUMPDEST PUSH1 0x40 MLOAD DUP1 SWAP2 SUB SWAP1 REVERT JUMPDEST PUSH1 0x1 PUSH1 0x1 PUSH1 0xA0 SHL SUB DUP7 AND PUSH2 0x2CB JUMPI PUSH1 0x40 MLOAD PUSH3 0x461BCD PUSH1 0xE5 SHL DUP2 MSTORE PUSH1 0x20 PUSH1 0x4 DUP3 ADD MSTORE PUSH1 0x1D PUSH1 0x24 DUP3 ADD MSTORE PUSH32 0x746F2063616E6E6F7420626520746865206E756C6C2061646472657373000000 PUSH1 0x44 DUP3 ADD MSTORE PUSH1 0x64 ADD PUSH2 0x26C JUMP JUMPDEST PUSH1 0x1 PUSH1 0x1 PUSH1 0xA0 SHL SUB DUP9 AND PUSH2 0x32D JUMPI PUSH1 0x40 MLOAD PUSH3 0x461BCD PUSH1 0xE5 SHL DUP2 MSTORE PUSH1 0x20 PUSH1 0x4 DUP3 ADD MSTORE PUSH1 0x23 PUSH1 0x24 DUP3 ADD MSTORE PUSH32 0x4F70657261746F722063616E6E6F7420626520746865206E756C6C2061646472 PUSH1 0x44 DUP3 ADD MSTORE PUSH3 0x657373 PUSH1 0xE8 SHL PUSH1 0x64 DUP3 ADD MSTORE PUSH1 0x84 ADD PUSH2 0x26C JUMP JUMPDEST PUSH1 0x1 SLOAD PUSH1 0x1 PUSH1 0x1 PUSH1 0xA0 SHL SUB SWAP1 DUP2 AND SWAP1 DUP9 AND SUB PUSH2 0x3A1 JUMPI PUSH1 0x40 MLOAD PUSH3 0x461BCD PUSH1 0xE5 SHL DUP2 MSTORE PUSH1 0x20 PUSH1 0x4 DUP3 ADD MSTORE PUSH1 0x2D PUSH1 0x24 DUP3 ADD MSTORE PUSH32 0x546F6B656E206F776E65722063616E27742074616B65207061727420696E2072 PUSH1 0x44 DUP3 ADD MSTORE PUSH13 0x32B234B9BA3934B13ABA34B7B7 PUSH1 0x99 SHL PUSH1 0x64 DUP3 ADD MSTORE PUSH1 0x84 ADD PUSH2 0x26C JUMP JUMPDEST DUP5 PUSH9 0x2B5E3AF16B1880000 SUB PUSH2 0x3BB JUMPI PUSH2 0x3BB DUP8 DUP7 PUSH2 0x455 JUMP JUMPDEST POP POP POP POP POP POP POP POP JUMP JUMPDEST PUSH1 0x40 MLOAD PUSH4 0x70A08231 PUSH1 0xE0 SHL DUP2 MSTORE ADDRESS PUSH1 0x4 DUP3 ADD MSTORE PUSH1 0x0 SWAP1 PUSH32 0x0 PUSH1 0x1 PUSH1 0x1 PUSH1 0xA0 SHL SUB AND SWAP1 PUSH4 0x70A08231 SWAP1 PUSH1 0x24 ADD PUSH1 0x20 PUSH1 0x40 MLOAD DUP1 DUP4 SUB DUP2 DUP7 GAS STATICCALL ISZERO DUP1 ISZERO PUSH2 0x42C JUMPI RETURNDATASIZE PUSH1 0x0 DUP1 RETURNDATACOPY RETURNDATASIZE PUSH1 0x0 REVERT JUMPDEST POP POP POP POP PUSH1 0x40 MLOAD RETURNDATASIZE PUSH1 0x1F NOT PUSH1 0x1F DUP3 ADD AND DUP3 ADD DUP1 PUSH1 0x40 MSTORE POP DUP2 ADD SWAP1 PUSH2 0x450 SWAP2 SWAP1 PUSH2 0x1151 JUMP JUMPDEST SWAP1 POP SWAP1 JUMP JUMPDEST PUSH1 0x40 DUP1 MLOAD CALLER DUP2 MSTORE PUSH1 0x20 DUP2 ADD DUP4 SWAP1 MSTORE ADDRESS SWAP2 PUSH32 0x8CABF31D2B1B11BA52DBB302817A3C9C83E4B2A5194D35121AB1354D69F6A4CB SWAP2 ADD PUSH1 0x40 MLOAD DUP1 SWAP2 SUB SWAP1 LOG2 DUP1 PUSH1 0x3 PUSH1 0x0 DUP3 DUP3 SLOAD PUSH2 0x4A2 SWAP2 SWAP1 PUSH2 0x1180 JUMP JUMPDEST SWAP1 SWAP2 SSTORE POP POP PUSH1 0x4 DUP1 SLOAD SWAP1 PUSH1 0x0 PUSH2 0x4B7 DUP4 PUSH2 0x1193 JUMP JUMPDEST SWAP2 SWAP1 POP SSTORE POP PUSH32 0xFC311E5AD54C0A8111EA3D9AAA3DC57FED9F4DCDA8C7FF43391116AB97DCD7F PUSH2 0x4E8 PUSH1 0x4 SLOAD PUSH2 0x5E3 JUMP JUMPDEST PUSH1 0x40 MLOAD PUSH2 0x4F5 SWAP2 SWAP1 PUSH2 0x11AC JUMP JUMPDEST PUSH1 0x40 MLOAD DUP1 SWAP2 SUB SWAP1 LOG1 PUSH1 0x0 DUP1 PUSH2 0x508 PUSH2 0x6EC JUMP JUMPDEST PUSH1 0x5 SLOAD ISZERO PUSH2 0x572 JUMPI POP PUSH1 0x5 SLOAD PUSH2 0x51D DUP5 PUSH2 0x894 JUMP JUMPDEST PUSH1 0x6 DUP1 SLOAD PUSH1 0x1 SWAP4 POP SWAP1 PUSH1 0x0 PUSH2 0x531 DUP4 PUSH2 0x1193 JUMP JUMPDEST SWAP2 SWAP1 POP SSTORE POP PUSH32 0xEF7BC9030FB5E6D9426A1985FC59F4C0E6BB1CC8F84D1A72D0439CA22A51666E PUSH1 0x6 SLOAD PUSH1 0x40 MLOAD PUSH2 0x569 SWAP2 DUP2 MSTORE PUSH1 0x20 ADD SWAP1 JUMP JUMPDEST PUSH1 0x40 MLOAD DUP1 SWAP2 SUB SWAP1 LOG1 JUMPDEST PUSH1 0x7 SLOAD PUSH1 0x8 SLOAD PUSH1 0x9 SLOAD PUSH1 0x4 SLOAD PUSH1 0x40 DUP1 MLOAD SWAP5 DUP6 MSTORE PUSH1 0x20 DUP6 ADD SWAP4 SWAP1 SWAP4 MSTORE SWAP2 DUP4 ADD MSTORE PUSH1 0x60 DUP3 ADD MSTORE DUP3 ISZERO ISZERO PUSH1 0x80 DUP3 ADD MSTORE PUSH1 0xA0 DUP2 ADD DUP3 SWAP1 MSTORE PUSH1 0x1 PUSH1 0x1 PUSH1 0xA0 SHL SUB DUP6 AND SWAP1 PUSH32 0x4196E6CCCB11210E7FC90747D1B7AADAB118234C277A69A22655995989765598 SWAP1 PUSH1 0xC0 ADD PUSH1 0x40 MLOAD DUP1 SWAP2 SUB SWAP1 LOG2 POP POP POP POP JUMP JUMPDEST PUSH1 0x60 DUP2 PUSH1 0x0 SUB PUSH2 0x60A JUMPI POP POP PUSH1 0x40 DUP1 MLOAD DUP1 DUP3 ADD SWAP1 SWAP2 MSTORE PUSH1 0x1 DUP2 MSTORE PUSH1 0x3 PUSH1 0xFC SHL PUSH1 0x20 DUP3 ADD MSTORE SWAP1 JUMP JUMPDEST DUP2 PUSH1 0x0 JUMPDEST DUP2 ISZERO PUSH2 0x634 JUMPI DUP1 PUSH2 0x61E DUP2 PUSH2 0x1193 JUMP JUMPDEST SWAP2 POP PUSH2 0x62D SWAP1 POP PUSH1 0xA DUP4 PUSH2 0x1210 JUMP JUMPDEST SWAP2 POP PUSH2 0x60E JUMP JUMPDEST PUSH1 0x0 DUP2 PUSH8 0xFFFFFFFFFFFFFFFF DUP2 GT ISZERO PUSH2 0x64F JUMPI PUSH2 0x64F PUSH2 0x1224 JUMP JUMPDEST PUSH1 0x40 MLOAD SWAP1 DUP1 DUP3 MSTORE DUP1 PUSH1 0x1F ADD PUSH1 0x1F NOT AND PUSH1 0x20 ADD DUP3 ADD PUSH1 0x40 MSTORE DUP1 ISZERO PUSH2 0x679 JUMPI PUSH1 0x20 DUP3 ADD DUP2 DUP1 CALLDATASIZE DUP4 CALLDATACOPY ADD SWAP1 POP JUMPDEST POP SWAP1 POP JUMPDEST DUP5 ISZERO PUSH2 0x6E4 JUMPI PUSH2 0x68E PUSH1 0x1 DUP4 PUSH2 0x123A JUMP JUMPDEST SWAP2 POP PUSH2 0x69B PUSH1 0xA DUP7 PUSH2 0x124D JUMP JUMPDEST PUSH2 0x6A6 SWAP1 PUSH1 0x30 PUSH2 0x1180 JUMP JUMPDEST PUSH1 0xF8 SHL DUP2 DUP4 DUP2 MLOAD DUP2 LT PUSH2 0x6BB JUMPI PUSH2 0x6BB PUSH2 0x1261 JUMP JUMPDEST PUSH1 0x20 ADD ADD SWAP1 PUSH1 0x1 PUSH1 0x1 PUSH1 0xF8 SHL SUB NOT AND SWAP1 DUP2 PUSH1 0x0 BYTE SWAP1 MSTORE8 POP PUSH2 0x6DD PUSH1 0xA DUP7 PUSH2 0x1210 JUMP JUMPDEST SWAP5 POP PUSH2 0x67D JUMP JUMPDEST SWAP5 SWAP4 POP POP POP POP JUMP JUMPDEST PUSH2 0x6F4 PUSH2 0x9B4 JUMP JUMPDEST PUSH1 0x7 DUP2 SWAP1 SSTORE PUSH1 0x40 MLOAD SWAP1 DUP2 MSTORE PUSH32 0xEA8314A4D41FA8E3E60459E8255942AE1480E3B65CDF21E031ECFC7FAA4650E1 SWAP1 PUSH1 0x20 ADD PUSH1 0x40 MLOAD DUP1 SWAP2 SUB SWAP1 LOG1 PUSH2 0x734 PUSH2 0xAC9 JUMP JUMPDEST PUSH1 0x8 DUP2 SWAP1 SSTORE PUSH1 0x40 MLOAD SWAP1 DUP2 MSTORE PUSH32 0xBF41A021F69623639A03015D65A13C7460632755FF3ED46A9B89A8FCAE474987 SWAP1 PUSH1 0x20 ADD PUSH1 0x40 MLOAD DUP1 SWAP2 SUB SWAP1 LOG1 PUSH2 0x774 PUSH2 0xB86 JUMP JUMPDEST PUSH1 0x9 DUP2 SWAP1 SSTORE PUSH1 0x40 MLOAD SWAP1 DUP2 MSTORE PUSH32 0xDC4BA54F8C7287C69E7679528D5A5C4F3393162810905F6D6D932E55C0C67608 SWAP1 PUSH1 0x20 ADD PUSH1 0x40 MLOAD DUP1 SWAP2 SUB SWAP1 LOG1 PUSH1 0x0 PUSH1 0x9 SLOAD PUSH1 0x8 SLOAD PUSH1 0x7 SLOAD PUSH2 0x7C1 SWAP2 SWAP1 PUSH2 0x1180 JUMP JUMPDEST PUSH2 0x7CB SWAP2 SWAP1 PUSH2 0x1180 JUMP JUMPDEST SWAP1 POP DUP1 PUSH1 0x58 SUB PUSH2 0x7F4 JUMPI PUSH2 0x7EC PUSH2 0x7E5 PUSH1 0x3 SLOAD PUSH1 0x1E PUSH2 0xC3E JUMP JUMPDEST PUSH1 0x64 PUSH2 0xC7F JUMP JUMPDEST PUSH1 0x5 SSTORE PUSH2 0x856 JUMP JUMPDEST PUSH1 0x14 DUP2 LT DUP1 ISZERO PUSH2 0x80E JUMPI POP PUSH2 0x80A PUSH1 0x2 DUP3 PUSH2 0x124D JUMP JUMPDEST PUSH1 0x1 EQ JUMPDEST ISZERO PUSH2 0x823 JUMPI PUSH2 0x7EC PUSH2 0x7E5 PUSH1 0x3 SLOAD PUSH1 0x14 PUSH2 0xC3E JUMP JUMPDEST PUSH1 0x50 DUP2 GT DUP1 ISZERO PUSH2 0x83B JUMPI POP PUSH2 0x839 PUSH1 0x2 DUP3 PUSH2 0x124D JUMP JUMPDEST ISZERO JUMPDEST ISZERO PUSH2 0x850 JUMPI PUSH2 0x7EC PUSH2 0x7E5 PUSH1 0x3 SLOAD PUSH1 0xA PUSH2 0xC3E JUMP JUMPDEST PUSH1 0x0 PUSH1 0x5 SSTORE JUMPDEST PUSH32 0x627271A6AADB3BB88A5C1A16C9273689F198298D5AC6228A9AC47B981FE43B2 PUSH1 0x5 SLOAD PUSH1 0x40 MLOAD PUSH2 0x889 SWAP2 DUP2 MSTORE PUSH1 0x20 ADD SWAP1 JUMP JUMPDEST PUSH1 0x40 MLOAD DUP1 SWAP2 SUB SWAP1 LOG1 POP JUMP JUMPDEST PUSH1 0x2 DUP1 SLOAD PUSH1 0x1 PUSH1 0x1 PUSH1 0xA0 SHL SUB NOT AND PUSH1 0x1 PUSH1 0x1 PUSH1 0xA0 SHL SUB DUP4 DUP2 AND SWAP2 DUP3 OR SWAP1 SWAP3 SSTORE PUSH1 0x5 SLOAD PUSH1 0x40 MLOAD PUSH4 0xA9059CBB PUSH1 0xE0 SHL DUP2 MSTORE PUSH1 0x4 DUP2 ADD SWAP3 SWAP1 SWAP3 MSTORE PUSH1 0x24 DUP3 ADD MSTORE PUSH32 0x0 SWAP1 SWAP2 AND SWAP1 PUSH4 0xA9059CBB SWAP1 PUSH1 0x44 ADD PUSH1 0x20 PUSH1 0x40 MLOAD DUP1 DUP4 SUB DUP2 PUSH1 0x0 DUP8 GAS CALL ISZERO DUP1 ISZERO PUSH2 0x91D JUMPI RETURNDATASIZE PUSH1 0x0 DUP1 RETURNDATACOPY RETURNDATASIZE PUSH1 0x0 REVERT JUMPDEST POP POP POP POP PUSH1 0x40 MLOAD RETURNDATASIZE PUSH1 0x1F NOT PUSH1 0x1F DUP3 ADD AND DUP3 ADD DUP1 PUSH1 0x40 MSTORE POP DUP2 ADD SWAP1 PUSH2 0x941 SWAP2 SWAP1 PUSH2 0x1277 JUMP JUMPDEST POP PUSH1 0x2 SLOAD PUSH1 0x5 SLOAD PUSH1 0x40 DUP1 MLOAD ADDRESS DUP2 MSTORE PUSH1 0x1 PUSH1 0x1 PUSH1 0xA0 SHL SUB SWAP1 SWAP4 AND PUSH1 0x20 DUP5 ADD MSTORE DUP3 ADD MSTORE PUSH32 0xAABFC2786B0ABDB7B786C958733379E2AA144C1B780C8A3FB48BF05168AA9E81 SWAP1 PUSH1 0x60 ADD PUSH1 0x40 MLOAD DUP1 SWAP2 SUB SWAP1 LOG1 PUSH1 0x5 SLOAD PUSH1 0x3 PUSH1 0x0 DUP3 DUP3 SLOAD PUSH2 0x9A3 SWAP2 SWAP1 PUSH2 0x123A JUMP JUMPDEST SWAP1 SWAP2 SSTORE POP PUSH2 0x9B1 SWAP1 POP PUSH2 0xCA2 JUMP JUMPDEST POP JUMP JUMPDEST PUSH1 0x4 SLOAD PUSH1 0x1 SLOAD PUSH1 0x0 SWAP2 DUP3 SWAP2 PUSH1 0x1 PUSH1 0x1 PUSH1 0xA0 SHL SUB AND PUSH2 0x9D0 PUSH2 0xCF9 JUMP JUMPDEST CALLER PUSH2 0x9D9 PUSH2 0xDC9 JUMP JUMPDEST PUSH2 0x9E4 PUSH1 0x1 NUMBER PUSH2 0x123A JUMP JUMPDEST PUSH1 0x6 SLOAD PUSH1 0x2 SLOAD PUSH1 0x5 SLOAD SWAP3 BLOCKHASH SWAP3 ADDRESS SWAP2 PUSH1 0x1 PUSH1 0x1 PUSH1 0xA0 SHL SUB AND SWAP1 PUSH2 0xA04 PUSH2 0xE99 JUMP JUMPDEST PUSH1 0x40 DUP1 MLOAD PUSH1 0x20 DUP2 ADD SWAP13 SWAP1 SWAP13 MSTORE PUSH1 0x1 PUSH1 0x1 PUSH1 0x60 SHL SUB NOT PUSH1 0x60 SWAP12 DUP13 SHL DUP2 AND SWAP2 DUP14 ADD SWAP2 SWAP1 SWAP2 MSTORE PUSH1 0x54 DUP13 ADD SWAP10 SWAP1 SWAP10 MSTORE SWAP7 DUP10 SHL DUP9 AND PUSH1 0x74 DUP12 ADD MSTORE PUSH1 0x88 DUP11 ADD SWAP6 SWAP1 SWAP6 MSTORE PUSH1 0xA8 DUP10 ADD SWAP4 SWAP1 SWAP4 MSTORE PUSH1 0xC8 DUP9 ADD SWAP2 SWAP1 SWAP2 MSTORE DUP6 SHL DUP5 AND PUSH1 0xE8 DUP8 ADD MSTORE SWAP1 SWAP4 SHL SWAP1 SWAP2 AND PUSH1 0xFC DUP5 ADD MSTORE PUSH2 0x110 DUP4 ADD SWAP2 SWAP1 SWAP2 MSTORE PUSH2 0x130 DUP3 ADD MSTORE PUSH2 0x150 ADD JUMPDEST PUSH1 0x40 DUP1 MLOAD DUP1 DUP4 SUB PUSH1 0x1F NOT ADD DUP2 MSTORE DUP3 DUP3 MSTORE DUP1 MLOAD PUSH1 0x20 SWAP2 DUP3 ADD KECCAK256 DUP2 DUP5 ADD DUP2 SWAP1 MSTORE DUP3 MLOAD DUP1 DUP6 SUB DUP4 ADD DUP2 MSTORE SWAP4 DUP4 ADD SWAP1 SWAP3 MSTORE DUP3 MLOAD SWAP3 ADD SWAP2 SWAP1 SWAP2 KECCAK256 SWAP1 SWAP2 POP PUSH1 0x0 PUSH2 0xABE PUSH1 0x21 DUP4 PUSH2 0x124D JUMP JUMPDEST PUSH2 0x6E4 SWAP1 PUSH1 0x2 PUSH2 0x1180 JUMP JUMPDEST PUSH1 0x0 DUP1 PUSH1 0x5 SLOAD PUSH2 0xAD7 PUSH2 0xCF9 JUMP JUMPDEST PUSH1 0x1 SLOAD PUSH1 0x1 PUSH1 0x1 PUSH1 0xA0 SHL SUB AND CALLER PUSH2 0xAEC PUSH2 0xE99 JUMP JUMPDEST PUSH1 0x4 SLOAD PUSH2 0xAFA PUSH1 0x1 NUMBER PUSH2 0x123A JUMP JUMPDEST PUSH1 0x6 SLOAD PUSH1 0x2 SLOAD SWAP2 BLOCKHASH SWAP2 ADDRESS SWAP2 SWAP1 PUSH1 0x1 PUSH1 0x1 PUSH1 0xA0 SHL SUB AND PUSH2 0xB17 PUSH2 0xDC9 JUMP JUMPDEST PUSH1 0x40 DUP1 MLOAD PUSH1 0x20 DUP2 ADD SWAP13 SWAP1 SWAP13 MSTORE DUP12 ADD SWAP10 SWAP1 SWAP10 MSTORE PUSH1 0x1 PUSH1 0x1 PUSH1 0x60 SHL SUB NOT PUSH1 0x60 SWAP9 DUP10 SHL DUP2 AND DUP10 DUP13 ADD MSTORE SWAP7 DUP9 SHL DUP8 AND PUSH1 0x74 DUP12 ADD MSTORE PUSH1 0x88 DUP11 ADD SWAP6 SWAP1 SWAP6 MSTORE PUSH1 0xA8 DUP10 ADD SWAP4 SWAP1 SWAP4 MSTORE PUSH1 0xC8 DUP9 ADD SWAP2 SWAP1 SWAP2 MSTORE DUP5 SHL DUP4 AND PUSH1 0xE8 DUP8 ADD MSTORE PUSH1 0xFC DUP7 ADD MSTORE SWAP1 SWAP2 SHL AND PUSH2 0x11C DUP4 ADD MSTORE PUSH2 0x130 DUP3 ADD MSTORE PUSH2 0x150 ADD PUSH2 0xA79 JUMP JUMPDEST PUSH1 0x0 DUP1 PUSH1 0x6 SLOAD PUSH1 0x4 SLOAD ADDRESS PUSH2 0xB98 PUSH2 0xCF9 JUMP JUMPDEST PUSH1 0x5 SLOAD PUSH1 0x2 SLOAD PUSH1 0x1 SLOAD PUSH1 0x1 PUSH1 0x1 PUSH1 0xA0 SHL SUB SWAP2 DUP3 AND SWAP2 CALLER SWAP2 AND PUSH2 0xBB8 PUSH2 0xDC9 JUMP JUMPDEST PUSH2 0xBC0 PUSH2 0xE99 JUMP JUMPDEST PUSH2 0xBCB PUSH1 0x1 NUMBER PUSH2 0x123A JUMP JUMPDEST PUSH1 0x40 DUP1 MLOAD PUSH1 0x20 DUP2 ADD SWAP13 SWAP1 SWAP13 MSTORE DUP12 ADD SWAP10 SWAP1 SWAP10 MSTORE PUSH1 0x1 PUSH1 0x1 PUSH1 0x60 SHL SUB NOT PUSH1 0x60 SWAP9 DUP10 SHL DUP2 AND DUP10 DUP13 ADD MSTORE PUSH1 0x74 DUP12 ADD SWAP8 SWAP1 SWAP8 MSTORE PUSH1 0x94 DUP11 ADD SWAP6 SWAP1 SWAP6 MSTORE SWAP3 DUP7 SHL DUP6 AND PUSH1 0xB4 DUP10 ADD MSTORE SWAP1 DUP6 SHL DUP5 AND PUSH1 0xC8 DUP9 ADD MSTORE SWAP1 SWAP4 SHL SWAP1 SWAP2 AND PUSH1 0xDC DUP6 ADD MSTORE PUSH1 0xF0 DUP5 ADD SWAP2 SWAP1 SWAP2 MSTORE PUSH2 0x110 DUP4 ADD MSTORE BLOCKHASH PUSH2 0x130 DUP3 ADD MSTORE PUSH2 0x150 ADD PUSH2 0xA79 JUMP JUMPDEST PUSH1 0x0 PUSH8 0xDE0B6B3A7640000 PUSH2 0xC6E PUSH2 0xC56 DUP6 DUP6 PUSH2 0xF7F JUMP JUMPDEST PUSH2 0xC69 PUSH1 0x2 PUSH8 0xDE0B6B3A7640000 PUSH2 0x1210 JUMP JUMPDEST PUSH2 0xFEC JUMP JUMPDEST PUSH2 0xC78 SWAP2 SWAP1 PUSH2 0x1210 JUMP JUMPDEST SWAP4 SWAP3 POP POP POP JUMP JUMPDEST PUSH1 0x0 DUP2 PUSH2 0xC6E PUSH2 0xC97 DUP6 PUSH8 0xDE0B6B3A7640000 PUSH2 0xF7F JUMP JUMPDEST PUSH2 0xC69 PUSH1 0x2 DUP7 PUSH2 0x1210 JUMP JUMPDEST PUSH1 0x0 PUSH1 0x4 DUP2 SWAP1 SSTORE PUSH1 0x6 DUP1 SLOAD SWAP2 PUSH2 0xCB7 DUP4 PUSH2 0x1193 JUMP JUMPDEST SWAP2 SWAP1 POP SSTORE POP PUSH32 0xEF7BC9030FB5E6D9426A1985FC59F4C0E6BB1CC8F84D1A72D0439CA22A51666E PUSH1 0x6 SLOAD PUSH1 0x40 MLOAD PUSH2 0xCEF SWAP2 DUP2 MSTORE PUSH1 0x20 ADD SWAP1 JUMP JUMPDEST PUSH1 0x40 MLOAD DUP1 SWAP2 SUB SWAP1 LOG1 JUMP JUMPDEST PUSH1 0x5 SLOAD PUSH1 0x1 DUP1 SLOAD PUSH1 0x4 SLOAD PUSH1 0x0 SWAP4 DUP5 SWAP4 SWAP1 SWAP3 PUSH1 0x1 PUSH1 0x1 PUSH1 0xA0 SHL SUB AND SWAP2 CALLER SWAP2 PUSH2 0xD20 SWAP1 NUMBER PUSH2 0x123A JUMP JUMPDEST PUSH1 0x6 SLOAD PUSH1 0x2 SLOAD PUSH1 0x40 DUP1 MLOAD PUSH1 0x20 DUP2 ADD SWAP9 SWAP1 SWAP9 MSTORE PUSH1 0x1 PUSH1 0x1 PUSH1 0x60 SHL SUB NOT PUSH1 0x60 SWAP8 DUP9 SHL DUP2 AND SWAP2 DUP10 ADD SWAP2 SWAP1 SWAP2 MSTORE SWAP5 DUP7 SHL DUP6 AND PUSH1 0x54 DUP9 ADD MSTORE PUSH1 0x68 DUP8 ADD SWAP4 SWAP1 SWAP4 MSTORE SWAP1 BLOCKHASH PUSH1 0x88 DUP7 ADD MSTORE ADDRESS DUP5 SHL DUP4 AND PUSH1 0xA8 DUP7 ADD MSTORE PUSH1 0xBC DUP6 ADD MSTORE SWAP1 SWAP2 SHL AND PUSH1 0xDC DUP3 ADD MSTORE PUSH1 0xF0 ADD PUSH1 0x40 DUP1 MLOAD PUSH1 0x1F NOT DUP2 DUP5 SUB ADD DUP2 MSTORE DUP3 DUP3 MSTORE DUP1 MLOAD PUSH1 0x20 SWAP2 DUP3 ADD KECCAK256 SWAP1 DUP4 ADD DUP2 SWAP1 MSTORE SWAP3 POP PUSH1 0x0 SWAP2 ADD PUSH1 0x40 DUP1 MLOAD PUSH1 0x1F NOT DUP2 DUP5 SUB ADD DUP2 MSTORE SWAP2 SWAP1 MSTORE DUP1 MLOAD PUSH1 0x20 SWAP1 SWAP2 ADD KECCAK256 SWAP1 POP PUSH1 0x0 PUSH2 0xABE PUSH2 0x258 DUP4 PUSH2 0x124D JUMP JUMPDEST PUSH1 0x4 SLOAD PUSH1 0x1 DUP1 SLOAD PUSH1 0x0 SWAP3 DUP4 SWAP3 SWAP1 SWAP2 PUSH1 0x1 PUSH1 0x1 PUSH1 0xA0 SHL SUB AND SWAP1 CALLER SWAP1 PUSH2 0xDED SWAP1 NUMBER PUSH2 0x123A JUMP JUMPDEST PUSH1 0x6 SLOAD PUSH1 0x2 SLOAD PUSH1 0x5 SLOAD PUSH1 0x40 DUP1 MLOAD PUSH1 0x20 DUP2 ADD SWAP9 SWAP1 SWAP9 MSTORE PUSH1 0x1 PUSH1 0x1 PUSH1 0x60 SHL SUB NOT PUSH1 0x60 SWAP8 DUP9 SHL DUP2 AND SWAP2 DUP10 ADD SWAP2 SWAP1 SWAP2 MSTORE SWAP5 DUP7 SHL DUP6 AND PUSH1 0x54 DUP9 ADD MSTORE SWAP3 BLOCKHASH PUSH1 0x68 DUP8 ADD MSTORE PUSH1 0x88 DUP7 ADD SWAP2 SWAP1 SWAP2 MSTORE ADDRESS DUP5 SHL DUP4 AND PUSH1 0xA8 DUP7 ADD MSTORE SWAP1 SWAP3 SHL AND PUSH1 0xBC DUP4 ADD MSTORE PUSH1 0xD0 DUP3 ADD MSTORE PUSH1 0xF0 ADD PUSH1 0x40 DUP1 MLOAD PUSH1 0x1F NOT DUP2 DUP5 SUB ADD DUP2 MSTORE DUP3 DUP3 MSTORE DUP1 MLOAD PUSH1 0x20 SWAP2 DUP3 ADD KECCAK256 SWAP1 DUP4 ADD DUP2 SWAP1 MSTORE SWAP3 POP PUSH1 0x0 SWAP2 ADD PUSH1 0x40 DUP1 MLOAD PUSH1 0x1F NOT DUP2 DUP5 SUB ADD DUP2 MSTORE SWAP2 SWAP1 MSTORE DUP1 MLOAD PUSH1 0x20 SWAP1 SWAP2 ADD KECCAK256 SWAP1 POP PUSH1 0x0 PUSH2 0xABE PUSH2 0x12C DUP4 PUSH2 0x124D JUMP JUMPDEST PUSH1 0x0 DUP1 PUSH1 0x6 SLOAD PUSH1 0x4 SLOAD ADDRESS PUSH1 0x5 SLOAD PUSH1 0x2 PUSH1 0x0 SWAP1 SLOAD SWAP1 PUSH2 0x100 EXP SWAP1 DIV PUSH1 0x1 PUSH1 0x1 PUSH1 0xA0 SHL SUB AND CALLER PUSH1 0x1 PUSH1 0x0 SWAP1 SLOAD SWAP1 PUSH2 0x100 EXP SWAP1 DIV PUSH1 0x1 PUSH1 0x1 PUSH1 0xA0 SHL SUB AND PUSH1 0x1 NUMBER PUSH2 0xEE0 SWAP2 SWAP1 PUSH2 0x123A JUMP JUMPDEST PUSH1 0x40 DUP1 MLOAD PUSH1 0x20 DUP2 ADD SWAP10 SWAP1 SWAP10 MSTORE DUP9 ADD SWAP7 SWAP1 SWAP7 MSTORE PUSH1 0x1 PUSH1 0x1 PUSH1 0x60 SHL SUB NOT PUSH1 0x60 SWAP6 DUP7 SHL DUP2 AND DUP7 DUP10 ADD MSTORE PUSH1 0x74 DUP9 ADD SWAP5 SWAP1 SWAP5 MSTORE SWAP2 DUP5 SHL DUP4 AND PUSH1 0x94 DUP8 ADD MSTORE DUP4 SHL DUP3 AND PUSH1 0xA8 DUP7 ADD MSTORE SWAP1 SWAP2 SHL AND PUSH1 0xBC DUP4 ADD MSTORE BLOCKHASH PUSH1 0xD0 DUP3 ADD MSTORE PUSH1 0xF0 ADD PUSH1 0x40 DUP1 MLOAD PUSH1 0x1F NOT DUP2 DUP5 SUB ADD DUP2 MSTORE DUP3 DUP3 MSTORE DUP1 MLOAD PUSH1 0x20 SWAP2 DUP3 ADD KECCAK256 SWAP1 DUP4 ADD DUP2 SWAP1 MSTORE SWAP3 POP PUSH1 0x0 SWAP2 ADD PUSH1 0x40 DUP1 MLOAD PUSH1 0x1F NOT DUP2 DUP5 SUB ADD DUP2 MSTORE SWAP2 SWAP1 MSTORE DUP1 MLOAD PUSH1 0x20 SWAP1 SWAP2 ADD KECCAK256 SWAP1 POP PUSH1 0x0 PUSH2 0xABE PUSH2 0x384 DUP4 PUSH2 0x124D JUMP JUMPDEST PUSH1 0x0 DUP2 ISZERO DUP1 PUSH2 0xFA3 JUMPI POP DUP3 DUP3 PUSH2 0xF95 DUP2 DUP4 PUSH2 0x1299 JUMP JUMPDEST SWAP3 POP PUSH2 0xFA1 SWAP1 DUP4 PUSH2 0x1210 JUMP JUMPDEST EQ JUMPDEST PUSH2 0xFE6 JUMPI PUSH1 0x40 MLOAD PUSH3 0x461BCD PUSH1 0xE5 SHL DUP2 MSTORE PUSH1 0x20 PUSH1 0x4 DUP3 ADD MSTORE PUSH1 0x14 PUSH1 0x24 DUP3 ADD MSTORE PUSH20 0x64732D6D6174682D6D756C2D6F766572666C6F77 PUSH1 0x60 SHL PUSH1 0x44 DUP3 ADD MSTORE PUSH1 0x64 ADD PUSH2 0x26C JUMP JUMPDEST SWAP3 SWAP2 POP POP JUMP JUMPDEST PUSH1 0x0 DUP3 PUSH2 0xFF9 DUP4 DUP3 PUSH2 0x1180 JUMP JUMPDEST SWAP2 POP DUP2 LT ISZERO PUSH2 0xFE6 JUMPI PUSH1 0x40 MLOAD PUSH3 0x461BCD PUSH1 0xE5 SHL DUP2 MSTORE PUSH1 0x20 PUSH1 0x4 DUP3 ADD MSTORE PUSH1 0x14 PUSH1 0x24 DUP3 ADD MSTORE PUSH20 0x64732D6D6174682D6164642D6F766572666C6F77 PUSH1 0x60 SHL PUSH1 0x44 DUP3 ADD MSTORE PUSH1 0x64 ADD PUSH2 0x26C JUMP JUMPDEST DUP1 CALLDATALOAD PUSH1 0x1 PUSH1 0x1 PUSH1 0xA0 SHL SUB DUP2 AND DUP2 EQ PUSH2 0x1058 JUMPI PUSH1 0x0 DUP1 REVERT JUMPDEST SWAP2 SWAP1 POP JUMP JUMPDEST PUSH1 0x0 DUP1 DUP4 PUSH1 0x1F DUP5 ADD SLT PUSH2 0x106F JUMPI PUSH1 0x0 DUP1 REVERT JUMPDEST POP DUP2 CALLDATALOAD PUSH8 0xFFFFFFFFFFFFFFFF DUP2 GT ISZERO PUSH2 0x1087 JUMPI PUSH1 0x0 DUP1 REVERT JUMPDEST PUSH1 0x20 DUP4 ADD SWAP2 POP DUP4 PUSH1 0x20 DUP3 DUP6 ADD ADD GT ISZERO PUSH2 0x109F JUMPI PUSH1 0x0 DUP1 REVERT JUMPDEST SWAP3 POP SWAP3 SWAP1 POP JUMP JUMPDEST PUSH1 0x0 DUP1 PUSH1 0x0 DUP1 PUSH1 0x0 DUP1 PUSH1 0x0 DUP1 PUSH1 0xC0 DUP10 DUP12 SUB SLT ISZERO PUSH2 0x10C2 JUMPI PUSH1 0x0 DUP1 REVERT JUMPDEST PUSH2 0x10CB DUP10 PUSH2 0x1041 JUMP JUMPDEST SWAP8 POP PUSH2 0x10D9 PUSH1 0x20 DUP11 ADD PUSH2 0x1041 JUMP JUMPDEST SWAP7 POP PUSH2 0x10E7 PUSH1 0x40 DUP11 ADD PUSH2 0x1041 JUMP JUMPDEST SWAP6 POP PUSH1 0x60 DUP10 ADD CALLDATALOAD SWAP5 POP PUSH1 0x80 DUP10 ADD CALLDATALOAD PUSH8 0xFFFFFFFFFFFFFFFF DUP1 DUP3 GT ISZERO PUSH2 0x110B JUMPI PUSH1 0x0 DUP1 REVERT JUMPDEST PUSH2 0x1117 DUP13 DUP4 DUP14 ADD PUSH2 0x105D JUMP JUMPDEST SWAP1 SWAP7 POP SWAP5 POP PUSH1 0xA0 DUP12 ADD CALLDATALOAD SWAP2 POP DUP1 DUP3 GT ISZERO PUSH2 0x1130 JUMPI PUSH1 0x0 DUP1 REVERT JUMPDEST POP PUSH2 0x113D DUP12 DUP3 DUP13 ADD PUSH2 0x105D JUMP JUMPDEST SWAP10 SWAP13 SWAP9 SWAP12 POP SWAP7 SWAP10 POP SWAP5 SWAP8 SWAP4 SWAP7 SWAP3 SWAP6 SWAP5 POP POP POP JUMP JUMPDEST PUSH1 0x0 PUSH1 0x20 DUP3 DUP5 SUB SLT ISZERO PUSH2 0x1163 JUMPI PUSH1 0x0 DUP1 REVERT JUMPDEST POP MLOAD SWAP2 SWAP1 POP JUMP JUMPDEST PUSH4 0x4E487B71 PUSH1 0xE0 SHL PUSH1 0x0 MSTORE PUSH1 0x11 PUSH1 0x4 MSTORE PUSH1 0x24 PUSH1 0x0 REVERT JUMPDEST DUP1 DUP3 ADD DUP1 DUP3 GT ISZERO PUSH2 0xFE6 JUMPI PUSH2 0xFE6 PUSH2 0x116A JUMP JUMPDEST PUSH1 0x0 PUSH1 0x1 DUP3 ADD PUSH2 0x11A5 JUMPI PUSH2 0x11A5 PUSH2 0x116A JUMP JUMPDEST POP PUSH1 0x1 ADD SWAP1 JUMP JUMPDEST PUSH1 0x0 PUSH1 0x20 DUP1 DUP4 MSTORE DUP4 MLOAD DUP1 DUP3 DUP6 ADD MSTORE PUSH1 0x0 JUMPDEST DUP2 DUP2 LT ISZERO PUSH2 0x11D9 JUMPI DUP6 DUP2 ADD DUP4 ADD MLOAD DUP6 DUP3 ADD PUSH1 0x40 ADD MSTORE DUP3 ADD PUSH2 0x11BD JUMP JUMPDEST POP PUSH1 0x0 PUSH1 0x40 DUP3 DUP7 ADD ADD MSTORE PUSH1 0x40 PUSH1 0x1F NOT PUSH1 0x1F DUP4 ADD AND DUP6 ADD ADD SWAP3 POP POP POP SWAP3 SWAP2 POP POP JUMP JUMPDEST PUSH4 0x4E487B71 PUSH1 0xE0 SHL PUSH1 0x0 MSTORE PUSH1 0x12 PUSH1 0x4 MSTORE PUSH1 0x24 PUSH1 0x0 REVERT JUMPDEST PUSH1 0x0 DUP3 PUSH2 0x121F JUMPI PUSH2 0x121F PUSH2 0x11FA JUMP JUMPDEST POP DIV SWAP1 JUMP JUMPDEST PUSH4 0x4E487B71 PUSH1 0xE0 SHL PUSH1 0x0 MSTORE PUSH1 0x41 PUSH1 0x4 MSTORE PUSH1 0x24 PUSH1 0x0 REVERT JUMPDEST DUP2 DUP2 SUB DUP2 DUP2 GT ISZERO PUSH2 0xFE6 JUMPI PUSH2 0xFE6 PUSH2 0x116A JUMP JUMPDEST PUSH1 0x0 DUP3 PUSH2 0x125C JUMPI PUSH2 0x125C PUSH2 0x11FA JUMP JUMPDEST POP MOD SWAP1 JUMP JUMPDEST PUSH4 0x4E487B71 PUSH1 0xE0 SHL PUSH1 0x0 MSTORE PUSH1 0x32 PUSH1 0x4 MSTORE PUSH1 0x24 PUSH1 0x0 REVERT JUMPDEST PUSH1 0x0 PUSH1 0x20 DUP3 DUP5 SUB SLT ISZERO PUSH2 0x1289 JUMPI PUSH1 0x0 DUP1 REVERT JUMPDEST DUP2 MLOAD DUP1 ISZERO ISZERO DUP2 EQ PUSH2 0xC78 JUMPI PUSH1 0x0 DUP1 REVERT JUMPDEST DUP1 DUP3 MUL DUP2 ISZERO DUP3 DUP3 DIV DUP5 EQ OR PUSH2 0xFE6 JUMPI PUSH2 0xFE6 PUSH2 0x116A JUMP INVALID LOG2 PUSH5 0x6970667358 0x22 SLT KECCAK256 SWAP5 SELFDESTRUCT 0xC3 0xCC 0xEA 0xD3 0xA8 0x25 0x4A DUP16 LOG0 CODECOPY 0xDA 0xAF CALLDATASIZE PUSH14 0xCC3954309D1CD07C213F6F26DFFC SWAP9 EXTCODESIZE PUSH5 0x736F6C6343 STOP ADDMOD SGT STOP CALLER "
		},
		"gasEstimates": {
			"creation": {
				"codeDepositCost": "967600",
				"executionCost": "infinite",
				"totalCost": "infinite"
			},
			"external": {
				"cycleId()": "2329",
				"getRandomNumber1()": "2369",
				"getRandomNumber2()": "2371",
				"getRandomNumber3()": "2370",
				"getTransfersCount()": "2326",
				"getto1()": "infinite",
				"lucky()": "2381",
				"owner()": "2360",
				"profit()": "2351",
				"randomNumber1()": "2330",
				"randomNumber2()": "2350",
				"randomNumber3()": "2307",
				"tokenBalance()": "infinite",
				"tokenReserve()": "2306",
				"tokensReceived(address,address,address,uint256,bytes,bytes)": "infinite",
				"transfersCount()": "2352"
			},
			"internal": {
				"getProfitAmount()": "infinite",
				"handleTransfer(address,uint256)": "infinite",
				"randomNumber4()": "infinite",
				"randomNumber5()": "infinite",
				"randomNumber6()": "infinite",
				"redistribute(address)": "infinite",
				"reset()": "infinite",
				"theRandomNumber1()": "infinite",
				"theRandomNumber2()": "infinite",
				"theRandomNumber3()": "infinite"
			}
		},
		"methodIdentifiers": {
			"cycleId()": "62e0accb",
			"getRandomNumber1()": "f67d3515",
			"getRandomNumber2()": "3aad20b6",
			"getRandomNumber3()": "834be7f9",
			"getTransfersCount()": "98649f20",
			"getto1()": "c1c1431c",
			"lucky()": "d9c291cf",
			"owner()": "8da5cb5b",
			"profit()": "66d16cc3",
			"randomNumber1()": "061cd6e5",
			"randomNumber2()": "dae2ca50",
			"randomNumber3()": "4c73f2ee",
			"tokenBalance()": "9e1a4d19",
			"tokenReserve()": "cbcb3171",
			"tokensReceived(address,address,address,uint256,bytes,bytes)": "0023de29",
			"transfersCount()": "166cfd0b"
		}
	},
	"abi": [
		{
			"inputs": [
				{
					"internalType": "contract ERC777",
					"name": "_getto1",
					"type": "address"
				}
			],
			"stateMutability": "nonpayable",
			"type": "constructor"
		},
		{
			"anonymous": false,
			"inputs": [
				{
					"indexed": false,
					"internalType": "uint256",
					"name": "cycleId",
					"type": "uint256"
				}
			],
			"name": "CycleId",
			"type": "event"
		},
		{
			"anonymous": false,
			"inputs": [
				{
					"indexed": false,
					"internalType": "uint256",
					"name": "randomNumber",
					"type": "uint256"
				}
			],
			"name": "RandomNumber1",
			"type": "event"
		},
		{
			"anonymous": false,
			"inputs": [
				{
					"indexed": false,
					"internalType": "uint256",
					"name": "randomNumber",
					"type": "uint256"
				}
			],
			"name": "RandomNumber2",
			"type": "event"
		},
		{
			"anonymous": false,
			"inputs": [
				{
					"indexed": false,
					"internalType": "uint256",
					"name": "randomNumber",
					"type": "uint256"
				}
			],
			"name": "RandomNumber3",
			"type": "event"
		},
		{
			"anonymous": false,
			"inputs": [
				{
					"indexed": false,
					"internalType": "address",
					"name": "sender",
					"type": "address"
				},
				{
					"indexed": true,
					"internalType": "address",
					"name": "contractAddr",
					"type": "address"
				},
				{
					"indexed": false,
					"internalType": "uint256",
					"name": "amount",
					"type": "uint256"
				}
			],
			"name": "Received",
			"type": "event"
		},
		{
			"anonymous": false,
			"inputs": [
				{
					"indexed": false,
					"internalType": "address",
					"name": "from",
					"type": "address"
				},
				{
					"indexed": false,
					"internalType": "address",
					"name": "to",
					"type": "address"
				},
				{
					"indexed": false,
					"internalType": "uint256",
					"name": "amount",
					"type": "uint256"
				}
			],
			"name": "Redistributed",
			"type": "event"
		},
		{
			"anonymous": false,
			"inputs": [
				{
					"indexed": true,
					"internalType": "address",
					"name": "from",
					"type": "address"
				},
				{
					"indexed": false,
					"internalType": "uint256",
					"name": "random1",
					"type": "uint256"
				},
				{
					"indexed": false,
					"internalType": "uint256",
					"name": "random2",
					"type": "uint256"
				},
				{
					"indexed": false,
					"internalType": "uint256",
					"name": "random3",
					"type": "uint256"
				},
				{
					"indexed": false,
					"internalType": "uint256",
					"name": "transfersCount",
					"type": "uint256"
				},
				{
					"indexed": false,
					"internalType": "bool",
					"name": "triggered",
					"type": "bool"
				},
				{
					"indexed": false,
					"internalType": "uint256",
					"name": "transferredProfit",
					"type": "uint256"
				}
			],
			"name": "RedistributionAttempt",
			"type": "event"
		},
		{
			"anonymous": false,
			"inputs": [
				{
					"indexed": false,
					"internalType": "uint256",
					"name": "amount",
					"type": "uint256"
				}
			],
			"name": "TransferredProfitCalculated",
			"type": "event"
		},
		{
			"anonymous": false,
			"inputs": [
				{
					"indexed": false,
					"internalType": "string",
					"name": "transfersCount",
					"type": "string"
				}
			],
			"name": "TransfersCount",
			"type": "event"
		},
		{
			"inputs": [],
			"name": "cycleId",
			"outputs": [
				{
					"internalType": "uint256",
					"name": "",
					"type": "uint256"
				}
			],
			"stateMutability": "view",
			"type": "function"
		},
		{
			"inputs": [],
			"name": "getRandomNumber1",
			"outputs": [
				{
					"internalType": "uint256",
					"name": "",
					"type": "uint256"
				}
			],
			"stateMutability": "view",
			"type": "function"
		},
		{
			"inputs": [],
			"name": "getRandomNumber2",
			"outputs": [
				{
					"internalType": "uint256",
					"name": "",
					"type": "uint256"
				}
			],
			"stateMutability": "view",
			"type": "function"
		},
		{
			"inputs": [],
			"name": "getRandomNumber3",
			"outputs": [
				{
					"internalType": "uint256",
					"name": "",
					"type": "uint256"
				}
			],
			"stateMutability": "view",
			"type": "function"
		},
		{
			"inputs": [],
			"name": "getTransfersCount",
			"outputs": [
				{
					"internalType": "uint256",
					"name": "",
					"type": "uint256"
				}
			],
			"stateMutability": "view",
			"type": "function"
		},
		{
			"inputs": [],
			"name": "getto1",
			"outputs": [
				{
					"internalType": "contract ERC777",
					"name": "",
					"type": "address"
				}
			],
			"stateMutability": "view",
			"type": "function"
		},
		{
			"inputs": [],
			"name": "lucky",
			"outputs": [
				{
					"internalType": "address",
					"name": "",
					"type": "address"
				}
			],
			"stateMutability": "view",
			"type": "function"
		},
		{
			"inputs": [],
			"name": "owner",
			"outputs": [
				{
					"internalType": "address",
					"name": "",
					"type": "address"
				}
			],
			"stateMutability": "view",
			"type": "function"
		},
		{
			"inputs": [],
			"name": "profit",
			"outputs": [
				{
					"internalType": "uint256",
					"name": "",
					"type": "uint256"
				}
			],
			"stateMutability": "view",
			"type": "function"
		},
		{
			"inputs": [],
			"name": "randomNumber1",
			"outputs": [
				{
					"internalType": "uint256",
					"name": "",
					"type": "uint256"
				}
			],
			"stateMutability": "view",
			"type": "function"
		},
		{
			"inputs": [],
			"name": "randomNumber2",
			"outputs": [
				{
					"internalType": "uint256",
					"name": "",
					"type": "uint256"
				}
			],
			"stateMutability": "view",
			"type": "function"
		},
		{
			"inputs": [],
			"name": "randomNumber3",
			"outputs": [
				{
					"internalType": "uint256",
					"name": "",
					"type": "uint256"
				}
			],
			"stateMutability": "view",
			"type": "function"
		},
		{
			"inputs": [],
			"name": "tokenBalance",
			"outputs": [
				{
					"internalType": "uint256",
					"name": "",
					"type": "uint256"
				}
			],
			"stateMutability": "view",
			"type": "function"
		},
		{
			"inputs": [],
			"name": "tokenReserve",
			"outputs": [
				{
					"internalType": "uint256",
					"name": "",
					"type": "uint256"
				}
			],
			"stateMutability": "view",
			"type": "function"
		},
		{
			"inputs": [
				{
					"internalType": "address",
					"name": "operator",
					"type": "address"
				},
				{
					"internalType": "address",
					"name": "from",
					"type": "address"
				},
				{
					"internalType": "address",
					"name": "to",
					"type": "address"
				},
				{
					"internalType": "uint256",
					"name": "amount",
					"type": "uint256"
				},
				{
					"internalType": "bytes",
					"name": "userData",
					"type": "bytes"
				},
				{
					"internalType": "bytes",
					"name": "operatorData",
					"type": "bytes"
				}
			],
			"name": "tokensReceived",
			"outputs": [],
			"stateMutability": "nonpayable",
			"type": "function"
		},
		{
			"inputs": [],
			"name": "transfersCount",
			"outputs": [
				{
					"internalType": "uint256",
					"name": "",
					"type": "uint256"
				}
			],
			"stateMutability": "view",
			"type": "function"
		}
	]
}